{
    "address": "0x24664f9240dcAADd20BfC75a8Ae8c0314eEaa2a7",
    "abi": [
        {
            "anonymous": false,
            "inputs": [
                {
                    "indexed": true,
                    "internalType": "uint256",
                    "name": "tradeDealId",
                    "type": "uint256"
                },
                {
                    "indexed": false,
                    "internalType": "uint256",
                    "name": "totalInterest",
                    "type": "uint256"
                },
                {
                    "indexed": false,
                    "internalType": "uint256",
                    "name": "invoicePoolInterest",
                    "type": "uint256"
                },
                {
                    "indexed": false,
                    "internalType": "uint256",
                    "name": "vabiInterest",
                    "type": "uint256"
                },
                {
                    "indexed": false,
                    "internalType": "uint256",
                    "name": "vabiTokensMinted",
                    "type": "uint256"
                }
            ],
            "name": "InterestDistributedForTradeDeal",
            "type": "event"
        },
        {
            "anonymous": false,
            "inputs": [
                {
                    "indexed": true,
                    "internalType": "uint256",
                    "name": "tradeDealId",
                    "type": "uint256"
                },
                {
                    "indexed": true,
                    "internalType": "uint256",
                    "name": "tokenId",
                    "type": "uint256"
                }
            ],
            "name": "InvoiceDepositedToTradeDeal",
            "type": "event"
        },
        {
            "anonymous": false,
            "inputs": [
                {
                    "indexed": true,
                    "internalType": "uint256",
                    "name": "tradeDealId",
                    "type": "uint256"
                },
                {
                    "indexed": true,
                    "internalType": "uint256",
                    "name": "tokenId",
                    "type": "uint256"
                }
            ],
            "name": "InvoiceWithdrawnFromTradeDeal",
            "type": "event"
        },
        {
            "anonymous": false,
            "inputs": [
                {
                    "indexed": true,
                    "internalType": "uint256",
                    "name": "tradeDealId",
                    "type": "uint256"
                }
            ],
            "name": "TradeDealActivated",
            "type": "event"
        },
        {
            "anonymous": false,
            "inputs": [
                {
                    "indexed": true,
                    "internalType": "uint256",
                    "name": "tradeDealId",
                    "type": "uint256"
                },
                {
                    "indexed": false,
                    "internalType": "string",
                    "name": "name",
                    "type": "string"
                },
                {
                    "indexed": false,
                    "internalType": "string",
                    "name": "symbol",
                    "type": "string"
                },
                {
                    "indexed": false,
                    "internalType": "uint256",
                    "name": "interestRate",
                    "type": "uint256"
                },
                {
                    "indexed": false,
                    "internalType": "uint256",
                    "name": "vabbToVabiRatio",
                    "type": "uint256"
                },
                {
                    "indexed": false,
                    "internalType": "bool",
                    "name": "active",
                    "type": "bool"
                },
                {
                    "indexed": false,
                    "internalType": "address",
                    "name": "nftAddress",
                    "type": "address"
                },
                {
                    "indexed": false,
                    "internalType": "address",
                    "name": "vabbAddress",
                    "type": "address"
                },
                {
                    "indexed": false,
                    "internalType": "address",
                    "name": "vabiAddress",
                    "type": "address"
                },
                {
                    "indexed": false,
                    "internalType": "address",
                    "name": "usdcAddress",
                    "type": "address"
                }
            ],
            "name": "TradeDealCreated",
            "type": "event"
        },
        {
            "anonymous": false,
            "inputs": [
                {
                    "indexed": true,
                    "internalType": "uint256",
                    "name": "tradeDealId",
                    "type": "uint256"
                }
            ],
            "name": "TradeDealDeactivated",
            "type": "event"
        },
        {
            "anonymous": false,
            "inputs": [
                {
                    "indexed": true,
                    "internalType": "uint256",
                    "name": "tradeDealId",
                    "type": "uint256"
                },
                {
                    "indexed": true,
                    "internalType": "address",
                    "name": "participant",
                    "type": "address"
                }
            ],
            "name": "TradeDealParticipantAdded",
            "type": "event"
        },
        {
            "anonymous": false,
            "inputs": [
                {
                    "indexed": true,
                    "internalType": "uint256",
                    "name": "tradeDealId",
                    "type": "uint256"
                },
                {
                    "indexed": true,
                    "internalType": "address",
                    "name": "participant",
                    "type": "address"
                }
            ],
            "name": "TradeDealParticipantRemoved",
            "type": "event"
        },
        {
            "anonymous": false,
            "inputs": [
                {
                    "indexed": true,
                    "internalType": "uint256",
                    "name": "tradeDealId",
                    "type": "uint256"
                },
                {
                    "indexed": false,
                    "internalType": "uint256[]",
                    "name": "claimTopics",
                    "type": "uint256[]"
                }
            ],
            "name": "TradeDealRequiredClaimTopicsSet",
            "type": "event"
        },
        {
            "anonymous": false,
            "inputs": [
                {
                    "indexed": true,
                    "internalType": "uint256",
                    "name": "tradeDealId",
                    "type": "uint256"
                },
                {
                    "indexed": false,
                    "internalType": "string",
                    "name": "name",
                    "type": "string"
                },
                {
                    "indexed": false,
                    "internalType": "string",
                    "name": "symbol",
                    "type": "string"
                },
                {
                    "indexed": false,
                    "internalType": "uint256",
                    "name": "interestRate",
                    "type": "uint256"
                },
                {
                    "indexed": false,
                    "internalType": "uint256",
                    "name": "vabbToVabiRatio",
                    "type": "uint256"
                },
                {
                    "indexed": false,
                    "internalType": "bool",
                    "name": "active",
                    "type": "bool"
                },
                {
                    "indexed": false,
                    "internalType": "address",
                    "name": "vabbAddress",
                    "type": "address"
                },
                {
                    "indexed": false,
                    "internalType": "address",
                    "name": "vabiAddress",
                    "type": "address"
                },
                {
                    "indexed": false,
                    "internalType": "address",
                    "name": "usdcAddress",
                    "type": "address"
                }
            ],
            "name": "TradeDealUpdated",
            "type": "event"
        },
        {
            "anonymous": false,
            "inputs": [
                {
                    "indexed": true,
                    "internalType": "uint256",
                    "name": "tradeDealId",
                    "type": "uint256"
                },
                {
                    "indexed": false,
                    "internalType": "uint256",
                    "name": "amount",
                    "type": "uint256"
                }
            ],
            "name": "USDCDepositedToTradeDeal",
            "type": "event"
        },
        {
            "anonymous": false,
            "inputs": [
                {
                    "indexed": true,
                    "internalType": "uint256",
                    "name": "tradeDealId",
                    "type": "uint256"
                },
                {
                    "indexed": false,
                    "internalType": "uint256",
                    "name": "amount",
                    "type": "uint256"
                }
            ],
            "name": "USDCWithdrawnFromTradeDeal",
            "type": "event"
        },
        {
            "inputs": [
                {
                    "internalType": "uint256",
                    "name": "tradeDealId",
                    "type": "uint256"
                }
            ],
            "name": "activateTradeDeal",
            "outputs": [],
            "stateMutability": "nonpayable",
            "type": "function"
        },
        {
            "inputs": [
                {
                    "internalType": "string",
                    "name": "name",
                    "type": "string"
                },
                {
                    "internalType": "string",
                    "name": "symbol",
                    "type": "string"
                },
                {
                    "internalType": "uint256",
                    "name": "interestRate",
                    "type": "uint256"
                },
                {
                    "internalType": "uint256",
                    "name": "vabbToVabiRatio",
                    "type": "uint256"
                },
                {
                    "internalType": "uint256[]",
                    "name": "requiredClaimTopics",
                    "type": "uint256[]"
                },
                {
                    "internalType": "address",
                    "name": "vabbAddress",
                    "type": "address"
                },
                {
                    "internalType": "address",
                    "name": "vabiAddress",
                    "type": "address"
                },
                {
                    "internalType": "address",
                    "name": "usdcAddress",
                    "type": "address"
                }
            ],
            "name": "createTradeDeal",
            "outputs": [
                {
                    "internalType": "uint256",
                    "name": "",
                    "type": "uint256"
                }
            ],
            "stateMutability": "nonpayable",
            "type": "function"
        },
        {
            "inputs": [
                {
                    "internalType": "uint256",
                    "name": "tradeDealId",
                    "type": "uint256"
                }
            ],
            "name": "deactivateTradeDeal",
            "outputs": [],
            "stateMutability": "nonpayable",
            "type": "function"
        },
        {
            "inputs": [],
            "name": "diamondOwner",
            "outputs": [
                {
                    "internalType": "address",
                    "name": "",
                    "type": "address"
                }
            ],
            "stateMutability": "view",
            "type": "function"
        },
        {
            "inputs": [],
            "name": "getAllTradeDealIds",
            "outputs": [
                {
                    "internalType": "uint256[]",
                    "name": "",
                    "type": "uint256[]"
                }
            ],
            "stateMutability": "view",
            "type": "function"
        },
        {
            "inputs": [
                {
                    "internalType": "uint256",
                    "name": "tradeDealId",
                    "type": "uint256"
                }
            ],
            "name": "getTradeDealInfo",
            "outputs": [
                {
                    "internalType": "string",
                    "name": "name",
                    "type": "string"
                },
                {
                    "internalType": "string",
                    "name": "symbol",
                    "type": "string"
                },
                {
                    "internalType": "uint256",
                    "name": "interestRate",
                    "type": "uint256"
                },
                {
                    "internalType": "uint256",
                    "name": "vabbToVabiRatio",
                    "type": "uint256"
                },
                {
                    "internalType": "bool",
                    "name": "active",
                    "type": "bool"
                }
            ],
            "stateMutability": "view",
            "type": "function"
        },
        {
            "inputs": [
                {
                    "internalType": "uint256",
                    "name": "tradeDealId",
                    "type": "uint256"
                }
            ],
            "name": "getTradeDealRequiredClaimTopics",
            "outputs": [
                {
                    "internalType": "uint256[]",
                    "name": "",
                    "type": "uint256[]"
                }
            ],
            "stateMutability": "view",
            "type": "function"
        },
        {
            "inputs": [
                {
                    "internalType": "uint256",
                    "name": "tradeDealId",
                    "type": "uint256"
                }
            ],
            "name": "getTradeDealTokenAddresses",
            "outputs": [
                {
                    "internalType": "address",
                    "name": "nftAddress",
                    "type": "address"
                },
                {
                    "internalType": "address",
                    "name": "vabbAddress",
                    "type": "address"
                },
                {
                    "internalType": "address",
                    "name": "vabiAddress",
                    "type": "address"
                },
                {
                    "internalType": "address",
                    "name": "usdcAddress",
                    "type": "address"
                }
            ],
            "stateMutability": "view",
            "type": "function"
        },
        {
            "inputs": [
                {
                    "internalType": "uint256",
                    "name": "tradeDealId",
                    "type": "uint256"
                },
                {
                    "internalType": "address",
                    "name": "user",
                    "type": "address"
                }
            ],
            "name": "isTradeDealParticipant",
            "outputs": [
                {
                    "internalType": "bool",
                    "name": "",
                    "type": "bool"
                }
            ],
            "stateMutability": "view",
            "type": "function"
        },
        {
            "inputs": [
                {
                    "internalType": "uint256",
                    "name": "",
                    "type": "uint256"
                },
                {
                    "internalType": "address",
                    "name": "",
                    "type": "address"
                }
            ],
            "name": "setTradeDealNFTAddress",
            "outputs": [],
            "stateMutability": "nonpayable",
            "type": "function"
        },
        {
            "inputs": [
                {
                    "internalType": "uint256",
                    "name": "tradeDealId",
                    "type": "uint256"
                },
                {
                    "internalType": "uint256[]",
                    "name": "claimTopics",
                    "type": "uint256[]"
                }
            ],
            "name": "setTradeDealRequiredClaimTopics",
            "outputs": [],
            "stateMutability": "nonpayable",
            "type": "function"
        },
        {
            "inputs": [
                {
                    "internalType": "uint256",
                    "name": "tradeDealId",
                    "type": "uint256"
                },
                {
                    "internalType": "address",
                    "name": "",
                    "type": "address"
                },
                {
                    "internalType": "address",
                    "name": "vabbAddress",
                    "type": "address"
                },
                {
                    "internalType": "address",
                    "name": "vabiAddress",
                    "type": "address"
                },
                {
                    "internalType": "address",
                    "name": "usdcAddress",
                    "type": "address"
                }
            ],
            "name": "setTradeDealTokenAddresses",
            "outputs": [],
            "stateMutability": "nonpayable",
            "type": "function"
        },
        {
            "inputs": [
                {
                    "internalType": "uint256",
                    "name": "tradeDealId",
                    "type": "uint256"
                },
                {
                    "internalType": "uint256",
                    "name": "tokenId",
                    "type": "uint256"
                }
            ],
            "name": "tdDepositInvoice",
            "outputs": [],
            "stateMutability": "nonpayable",
            "type": "function"
        },
        {
            "inputs": [
                {
                    "internalType": "uint256",
                    "name": "tradeDealId",
                    "type": "uint256"
                },
                {
                    "internalType": "uint256",
                    "name": "amount",
                    "type": "uint256"
                }
            ],
            "name": "tdDepositUSDC",
            "outputs": [],
            "stateMutability": "nonpayable",
            "type": "function"
        },
        {
            "inputs": [
                {
                    "internalType": "uint256",
                    "name": "tradeDealId",
                    "type": "uint256"
                }
            ],
            "name": "tdDistributeInterest",
            "outputs": [],
            "stateMutability": "nonpayable",
            "type": "function"
        },
        {
            "inputs": [
                {
                    "internalType": "uint256",
                    "name": "tradeDealId",
                    "type": "uint256"
                },
                {
                    "internalType": "uint256",
                    "name": "tokenId",
                    "type": "uint256"
                }
            ],
            "name": "tdWithdrawInvoice",
            "outputs": [],
            "stateMutability": "nonpayable",
            "type": "function"
        },
        {
            "inputs": [
                {
                    "internalType": "uint256",
                    "name": "tradeDealId",
                    "type": "uint256"
                },
                {
                    "internalType": "uint256",
                    "name": "amount",
                    "type": "uint256"
                }
            ],
            "name": "tdWithdrawUSDC",
            "outputs": [],
            "stateMutability": "nonpayable",
            "type": "function"
        },
        {
            "inputs": [
                {
                    "internalType": "uint256",
                    "name": "tradeDealId",
                    "type": "uint256"
                },
                {
                    "internalType": "string",
                    "name": "name",
                    "type": "string"
                },
                {
                    "internalType": "string",
                    "name": "symbol",
                    "type": "string"
                },
                {
                    "internalType": "uint256",
                    "name": "interestRate",
                    "type": "uint256"
                },
                {
                    "internalType": "uint256",
                    "name": "vabbToVabiRatio",
                    "type": "uint256"
                },
                {
                    "internalType": "address",
                    "name": "vabbAddress",
                    "type": "address"
                },
                {
                    "internalType": "address",
                    "name": "vabiAddress",
                    "type": "address"
                },
                {
                    "internalType": "address",
                    "name": "usdcAddress",
                    "type": "address"
                }
            ],
            "name": "updateTradeDeal",
            "outputs": [],
            "stateMutability": "nonpayable",
            "type": "function"
        }
    ],
    "transactionHash": "0xe31413e960cb885f90b1a71f185e61b770c7b0ee86a53ae694ba146f7ea15c17",
    "args": [],
    "numDeployments": 1,
    "solcInputHash": "d6580ec9a51066fb54c05832acdc607a",
    "bytecode": "0x6080806040523461001657612f7d908161001c8239f35b600080fdfe6080604052600436101561001257600080fd5b6000803560e01c806313d6b5f6146122615780631504e3e1146121975780631718d7af146121665780634b0b57f614611f765780634c9f67dc14611a275780635a6e71c3146119c157806370ad7833146115205780637949ba001461140e5780637d1f54b8146112995780637d2549151461100e578063837e3d0214610e7d5780639ee0770814610de4578063b68f012514610d7e578063d2a6f69c146109cc578063e3f7cc9214610955578063e4efe1171461090f578063e6ad4611146108435763f7231dc8146100e357600080fd5b34610840576101006003193601126108405760043567ffffffffffffffff811161083c57610115903690600401612408565b60243567ffffffffffffffff811161083857610135903690600401612408565b60843567ffffffffffffffff81116108345761015590369060040161244f565b9061015e6122cf565b906101676122e5565b936101706122fb565b956001600160a01b037fc8fcad8db84d3cc18b4c41d551ea0ee66dd599cde068d998e57d5e09332c132054163314801561082b575b6101ae90612539565b8396816101206040516101c081612374565b82815260606020820152606060408201528260608201528260808201528260a08201528260c08201528260e08201528261010082015201527fbd516eb36b5d4489adb2e717e7d0ce56c1b814eda85e78ad9d8f240b24dd833754946102248661263f565b7fbd516eb36b5d4489adb2e717e7d0ce56c1b814eda85e78ad9d8f240b24dd8337558583527fbd516eb36b5d4489adb2e717e7d0ce56c1b814eda85e78ad9d8f240b24dd83356020526040832090868255845167ffffffffffffffff811161076f576102936001840154612664565b601f81116107f8575b50806020601f821160011461078e578691610783575b506000198260011b9260031b1c19161760018301555b855167ffffffffffffffff811161076f576102e66002840154612664565b601f8111610731575b506020601f82116001146106be5790806001600160a01b03939287916106b3575b506000198260011b9260031b1c19161760028401555b6044356003840155606435600484015560058301600160ff1982541617905516156106a1575b6001600160a01b0389167fffffffffffffffffffffffff0000000000000000000000000000000000000000600783015416176007820155600881016001600160a01b0389167fffffffffffffffffffffffff0000000000000000000000000000000000000000825416179055600981016001600160a01b0383167fffffffffffffffffffffffff0000000000000000000000000000000000000000825416179055865161061e575b507fbd516eb36b5d4489adb2e717e7d0ce56c1b814eda85e78ad9d8f240b24dd833654680100000000000000008110156106085760018101807fbd516eb36b5d4489adb2e717e7d0ce56c1b814eda85e78ad9d8f240b24dd8336558110156105f25785907fbd516eb36b5d4489adb2e717e7d0ce56c1b814eda85e78ad9d8f240b24dd83366000527f696bba000635c29ab48970a9bb3a30c259f244f79f191799986d75d3ccbf99f80155604051966104ac88612374565b8588528360208901528460408901526044356060890152606435608089015260a08801600190528260c08901526001600160a01b03891660e08901526001600160a01b0381166101008901526001600160a01b03821661012089015286511515986040519586956101208752610120870161052691612514565b868103602088015261053791612514565b9360443560408701526064356060870152608086016001905260a08601526001600160a01b031660c08501526001600160a01b031660e08401526001600160a01b0316610100830152037fed0366d8af5e5ed4eb6e11fb3853d3ba064a0723f1e824313b66b3bde66455ce91a26020926105b6575b5051604051908152f35b7fd870e4f0b23e1b6feaf7b25c39f808295f3c1bcd9e7208b3a2fc10b19db802e96105e9835192604051918291826124b6565b0390a2386105ac565b634e487b7160e01b600052603260045260246000fd5b634e487b7160e01b600052604160045260246000fd5b939096919792885b8751811015610693578061064a61064061068e938b6126b5565b51600689016126e1565b878b527fbd516eb36b5d4489adb2e717e7d0ce56c1b814eda85e78ad9d8f240b24dd833b60205261068960408c20610682838c6126b5565b51906126e1565b61263f565b610626565b5092979196909350386103f4565b97506106ad8486612cbe565b9761034c565b905088015138610310565b6002840186526020862090865b601f19841681106107195750916001916001600160a01b03949382601f19811610610700575b5050811b016002840155610326565b8a015160001960f88460031b161c1916905538806106f1565b9091602060018192858d0151815501930191016106cb565b61075f9060028501875260208720601f840160051c81019160208510610765575b601f0160051c019061269e565b386102ef565b9091508190610752565b602485634e487b7160e01b81526041600452fd5b9050860151386102b2565b91506001840186526020862086925b601f19831684106107e0576001935082601f198116106107c7575b5050811b0160018301556102c8565b88015160001960f88460031b161c1916905538806107b8565b8881015182556020938401936001909201910161079d565b6108259060018501875260208720601f840160051c8101916020851061076557601f0160051c019061269e565b3861029c565b503033146101a5565b8380fd5b8280fd5b5080fd5b80fd5b5034610840576020600319360112610840576004356001600160a01b037fc8fcad8db84d3cc18b4c41d551ea0ee66dd599cde068d998e57d5e09332c1320541633148015610906575b61089590612539565b6108a66108a18261270b565b6125f4565b8082527fbd516eb36b5d4489adb2e717e7d0ce56c1b814eda85e78ad9d8f240b24dd83356020526005604083200160ff198154169055604051907f18a646ad5e9e25d43bd35451aefc591a1c2ec6fc53626bc814c3e5561da5f57b8383a2f35b5030331461088c565b503461084057806003193601126108405760206001600160a01b037fc8fcad8db84d3cc18b4c41d551ea0ee66dd599cde068d998e57d5e09332c13205416604051908152f35b5034610840576020600319360112610840576109aa610975600435612861565b60208101519060408101516060820151916109b860a0608083015192015115159260405196879660a0885260a0880190612514565b908682036020880152612514565b926040850152606084015260808301520390f35b5034610840576109db36612311565b906109e63382612978565b8015610d46575b6109f690612584565b610a026108a18261270b565b604051917f6352211e000000000000000000000000000000000000000000000000000000008352806004840152602060249381818681305afa908115610d3b578691610cfa575b506001600160a01b0330911603610cb7578285527fbd516eb36b5d4489adb2e717e7d0ce56c1b814eda85e78ad9d8f240b24dd8338815260408520938594865b815480821015610cab578590610a9f83856126c9565b929054600393841b1c14610abd575050610ab89061263f565b610a89565b919093949596975060001991828101908111610c985790610af1610ae4610b0c93866126c9565b905490871b1c91856126c9565b90919082549060031b600019811b9283911b16911916179055565b81548015610c8557810192610b2184846126c9565b81939154921b1b191690555560015b15610c1d57604051908282019082821067ffffffffffffffff831117610c095750610b93918391604052868152604051809381927f4d5592ea00000000000000000000000000000000000000000000000000000000835287333060048601612b63565b038188305af18015610bfe57610bd0575b5050604051917fa92b2c8f01281ad4d8e4dff3f27cbe455644c050115ef8a0521ed35ab210b3bd8484a3f35b81610bef92903d10610bf7575b610be781836123c9565b810190612b4b565b503880610ba4565b503d610bdd565b6040513d87823e3d90fd5b634e487b7160e01b60005260416004526000fd5b608492506040519162461bcd60e51b83526004830152808201527f496e766f696365206e6f7420666f756e6420696e20746869732074726164652060448201527f6465616c000000000000000000000000000000000000000000000000000000006064820152fd5b8489634e487b7160e01b81526031600452fd5b858a634e487b7160e01b81526011600452fd5b50505090919293610b30565b606490601e856040519262461bcd60e51b845260048401528201527f4e4654206e6f74206f776e6564206279207468697320636f6e747261637400006044820152fd5b90508181813d8311610d34575b610d1181836123c9565b81010312610d3057516001600160a01b0381168103610d305738610a49565b8580fd5b503d610d07565b6040513d88823e3d90fd5b506109f66001600160a01b037fc8fcad8db84d3cc18b4c41d551ea0ee66dd599cde068d998e57d5e09332c13205416331490506109ed565b503461084057602060031936011261084057610dd46040610de092600435610da86108a18261270b565b81527fbd516eb36b5d4489adb2e717e7d0ce56c1b814eda85e78ad9d8f240b24dd833b60205220612812565b604051918291826124b6565b0390f35b5034610840578060031936011261084057604051807fbd516eb36b5d4489adb2e717e7d0ce56c1b814eda85e78ad9d8f240b24dd83369182548082526020809201936000527f696bba000635c29ab48970a9bb3a30c259f244f79f191799986d75d3ccbf99f8916000905b828210610e6657610de085610dd4818903826123c9565b835486529485019460019384019390910190610e4f565b503461084057610e8c36612311565b610e963383612978565b8015610fd6575b610ea690612584565b610eb26108a18361270b565b81835260207fbd516eb36b5d4489adb2e717e7d0ce56c1b814eda85e78ad9d8f240b24dd83358152610eed60ff600560408720015416612b00565b6040519080820182811067ffffffffffffffff82111761060857610f49928291604052868152604051809481927f4d5592ea00000000000000000000000000000000000000000000000000000000835287303360048601612b63565b038188305af1918215610bfe577fbd516eb36b5d4489adb2e717e7d0ce56c1b814eda85e78ad9d8f240b24dd833892610fb9575b5083855252610f8f81604085206126e1565b604051917f0b66693e511e1dc453c70056959759d92966a30195684323c1a530209e3e32308484a3f35b610fcf90823d8411610bf757610be781836123c9565b5038610f7d565b50610ea66001600160a01b037fc8fcad8db84d3cc18b4c41d551ea0ee66dd599cde068d998e57d5e09332c1320541633149050610e9d565b50346108405760208060031936011261083c57600435906001600160a01b0390817fc8fcad8db84d3cc18b4c41d551ea0ee66dd599cde068d998e57d5e09332c1320541633148015611290575b61106490612539565b83608060405161107381612358565b828152828482015282604082015282606082015201526110956108a18461270b565b8284527fbd516eb36b5d4489adb2e717e7d0ce56c1b814eda85e78ad9d8f240b24dd83358082526110cf60ff600560408820015416612b00565b8385528152604084207fbd516eb36b5d4489adb2e717e7d0ce56c1b814eda85e78ad9d8f240b24dd83398083526127106111126040882054600385015490612c38565b04928360011c946111238686612b95565b92878952825260408820611138868254612b95565b905561114b816009860154161515612ba2565b600861115b600486015485612c38565b94015416801561124c578088913b1561083c576040517f40c10f19000000000000000000000000000000000000000000000000000000008152306004820152602481018690529082908290604490829084905af1801561124157611221575b5050907f4ddc37c9b2de1d019f8484c159dcde5663dbe44fecc540fad47b4a608e8e70f294839260809594866040516111f281612358565b8a81528784820152846040820152856060820152015260405194855284015260408301526060820152a2604051f35b61122f909594939295612327565b61123d5790919286386111ba565b8680fd5b6040513d84823e3d90fd5b6064826040519062461bcd60e51b82526004820152601f60248201527f5472616465206465616c20564142492061646472657373206e6f7420736574006044820152fd5b5030331461105b565b50346108405760406003193601126108405760043560243567ffffffffffffffff8111610838576112ce90369060040161244f565b6001600160a01b037fc8fcad8db84d3cc18b4c41d551ea0ee66dd599cde068d998e57d5e09332c1320541633148015611405575b61130b90612539565b6113176108a18361270b565b8183527fbd516eb36b5d4489adb2e717e7d0ce56c1b814eda85e78ad9d8f240b24dd833b91602083815261134d60408620612c4b565b8185527fbd516eb36b5d4489adb2e717e7d0ce56c1b814eda85e78ad9d8f240b24dd833590818152600692611386846040892001612c4b565b865b85518110156113ca576113c5908289528784526113ac60408a20610682838a6126b5565b8289528484526106898660408b2001610682838a6126b5565b611388565b87827fd870e4f0b23e1b6feaf7b25c39f808295f3c1bcd9e7208b3a2fc10b19db802e96113fd89604051918291826124b6565b0390a2604051f35b50303314611302565b50346108405760a06003193601126108405760043561142b6122b9565b50604435906001600160a01b0380831680930361151b5760643581811680910361151b576084359282841680940361151b576009927fc8fcad8db84d3cc18b4c41d551ea0ee66dd599cde068d998e57d5e09332c1320541633148015611512575b61149590612539565b6114a16108a18261270b565b85527fbd516eb36b5d4489adb2e717e7d0ce56c1b814eda85e78ad9d8f240b24dd83356020526040852090600782017fffffffffffffffffffffffff000000000000000000000000000000000000000095868254161790556008820190858254161790550191825416179055604051f35b5030331461148c565b600080fd5b5034610840576101006003193601126108405760243567ffffffffffffffff811161083c57611553903690600401612408565b9060443567ffffffffffffffff811161083c57611574903690600401612408565b9161157d6122cf565b906115866122e5565b9161158f6122fb565b926001600160a01b037fc8fcad8db84d3cc18b4c41d551ea0ee66dd599cde068d998e57d5e09332c13205416331480156119b8575b6115cd90612539565b846101006040516115dd8161233b565b82815260606020820152606060408201528260608201528260808201528260a08201528260c08201528260e0820152015261161c6108a160043561270b565b60043585527fbd516eb36b5d4489adb2e717e7d0ce56c1b814eda85e78ad9d8f240b24dd83356020526040852093835167ffffffffffffffff81116118fc576116686001870154612664565b601f8111611985575b50806020601f821160011461191b578891611910575b506000198260011b9260031b1c19161760018601555b86519667ffffffffffffffff88116118fc576116bc6002870154612664565b601f81116118c9575b506020601f891160011461183c57978088997f481f4c7283b81a95f22f60e167e146a8e25140deba7bc5c5816dfd5268a809cb989991611831575b506000198260011b9260031b1c19161760028801555b6064359687600382015561180560ff6005608435938460048201556001600160a01b03600782019916967fffffffffffffffffffffffff000000000000000000000000000000000000000099888b8254161790556001600160a01b0360088301991698898b8254161790556001600160a01b03600983019116809a8254161790550154169286610100604051956117ac8761233b565b60043587528a60208801528360408801528c60608801528560808801521515958660a08201528760c08201528860e082015201526117f7604051986101008a526101008a0190612514565b9088820360208a0152612514565b9760408701526060860152608085015260a084015260c083015260e082015280600435930390a2604051f35b905082015138611700565b6002870188526020882090885b601f198b1681106118b15750986001917f481f4c7283b81a95f22f60e167e146a8e25140deba7bc5c5816dfd5268a809cb98999a82601f19811610611898575b5050811b016002880155611716565b84015160001960f88460031b161c191690553880611889565b90916020600181928587015181550193019101611849565b6118f69060028801895260208920601f8b0160051c81019160208c1061076557601f0160051c019061269e565b386116c5565b602487634e487b7160e01b81526041600452fd5b905085015138611687565b91506001870188526020882088925b601f198316841061196d576001935082601f19811610611954575b5050811b01600186015561169d565b87015160001960f88460031b161c191690553880611945565b8781015182556020938401936001909201910161192a565b6119b29060018801895260208920601f840160051c8101916020851061076557601f0160051c019061269e565b38611671565b503033146115c4565b5034610840576040600319360112610840576119db6122b9565b506001600160a01b037fc8fcad8db84d3cc18b4c41d551ea0ee66dd599cde068d998e57d5e09332c1320541633148015611a1e575b611a1990612539565b604051f35b50303314611a10565b503461084057611a3636612311565b9190611a423382612978565b8015611f3e575b611a5290612584565b611a5e6108a18261270b565b8082527fbd516eb36b5d4489adb2e717e7d0ce56c1b814eda85e78ad9d8f240b24dd8335602090808252611a9b60ff600560408720015416612b00565b828452815260408320936001600160a01b038060098701541690611ac0821515612ba2565b6040517f23b872dd00000000000000000000000000000000000000000000000000000000815233600482015284816064818a60249730898401528960448401525af1908115611f335790611b1b918891611f16575b50612bed565b8486527fbd516eb36b5d4489adb2e717e7d0ce56c1b814eda85e78ad9d8f240b24dd8339845260408620805490848201809211611f035755611b5d3386612978565b15611eb4575b6007870154169586611ba1575b5050907fda3f953f7320b5f18504f92a7b98dd63b38f6bed8e98f1beb7739d4b0a104d7c91604051908152a2604051f35b6005019081549060ff1997600189841617845564e8d4a510008560001904811186151516611ea157850290803b15611e9d576040517f40c10f19000000000000000000000000000000000000000000000000000000008152336004820152602481018390529089908290604490829084905af19081611e54575b50986000808860ff9586957fda3f953f7320b5f18504f92a7b98dd63b38f6bed8e98f1beb7739d4b0a104d7c9c9d9e158414611cfe57509050604051611c60816123ad565b601a81527f4661696c656420746f206d696e74205641424220746f6b656e730000000000008b820152611cd88b611cca604051938285938401967f41304fac0000000000000000000000000000000000000000000000000000000088528401526044830190612514565b03601f1981018352826123c9565b51906a636f6e736f6c652e6c6f675afa505b845416921615151617905584939238611b70565b611e4a6040917f5375636365737366756c6c79206d696e746564205641424220746f6b656e7320835195611d3187612391565b602287528601527f746f000000000000000000000000000000000000000000000000000000000000838601528d835191878084611d9d8582019a7f319af333000000000000000000000000000000000000000000000000000000008c52898b8401526064830190612514565b3360448301520394611db7601f19968781018352826123c9565b516a636f6e736f6c652e6c6f67998a5afa50611e388551611dd7816123ad565b600781527f416d6f756e743a000000000000000000000000000000000000000000000000008482015286519687948501987fb60e72cc000000000000000000000000000000000000000000000000000000008a528501526064840190612514565b906044830152039081018352826123c9565b51915afa50611cea565b60008860ff9586957fda3f953f7320b5f18504f92a7b98dd63b38f6bed8e98f1beb7739d4b0a104d7c9c9d959e95611e8c8596612327565b9d9c50955095505050999099611c1b565b8880fd5b8289634e487b7160e01b81526011600452fd5b611ec06108a18661270b565b8486527fbd516eb36b5d4489adb2e717e7d0ce56c1b814eda85e78ad9d8f240b24dd833a845260408620338752845260408620600160ff19825416179055611b63565b8388634e487b7160e01b81526011600452fd5b611f2d9150863d8811610bf757610be781836123c9565b38611b15565b6040513d89823e3d90fd5b50611a526001600160a01b037fc8fcad8db84d3cc18b4c41d551ea0ee66dd599cde068d998e57d5e09332c1320541633149050611a49565b503461084057611f8536612311565b6001600160a01b03807fc8fcad8db84d3cc18b4c41d551ea0ee66dd599cde068d998e57d5e09332c132054163314801561215d575b611fc390612539565b611fcf6108a18461270b565b8284527fbd516eb36b5d4489adb2e717e7d0ce56c1b814eda85e78ad9d8f240b24dd833991602091838352816040872054106120f3578486527fbd516eb36b5d4489adb2e717e7d0ce56c1b814eda85e78ad9d8f240b24dd8335835260096040872001541692612040841515612ba2565b6040517fa9059cbb00000000000000000000000000000000000000000000000000000000815233600482015260248101839052938390859060449082908a905af1938415610d3b577fa539a9eb6d64ed99d8198bd12034f5b51a1e0a78e730858ba9b30c253c6e966f946120ba9188916120dc5750612bed565b8486528252604085206120ce828254612b95565b9055604051908152a2604051f35b611f2d9150853d8711610bf757610be781836123c9565b6084836040519062461bcd60e51b82526004820152602760248201527f496e73756666696369656e7420555344432062616c616e636520696e2074726160448201527f6465206465616c000000000000000000000000000000000000000000000000006064820152fd5b50303314611fba565b503461084057604060031936011261084057602061218d6121856122b9565b600435612978565b6040519015158152f35b5034610840576020600319360112610840576004356001600160a01b037fc8fcad8db84d3cc18b4c41d551ea0ee66dd599cde068d998e57d5e09332c1320541633148015612258575b6121e990612539565b6121f56108a18261270b565b8082527fbd516eb36b5d4489adb2e717e7d0ce56c1b814eda85e78ad9d8f240b24dd833560205260056040832001600160ff19825416179055604051907fbf2b21995a82cd2a31b4577ee5317f810aeeedf94f54f11104d5e8abc79f3f3b8383a2f35b503033146121e0565b5034610840576020600319360112610840576080612280600435612861565b6001600160a01b03908160e082015116916101208161010084015116920151169060405192308452602084015260408301526060820152f35b602435906001600160a01b038216820361151b57565b60a435906001600160a01b038216820361151b57565b60c435906001600160a01b038216820361151b57565b60e435906001600160a01b038216820361151b57565b600319604091011261151b576004359060243590565b67ffffffffffffffff811161060857604052565b610120810190811067ffffffffffffffff82111761060857604052565b60a0810190811067ffffffffffffffff82111761060857604052565b610140810190811067ffffffffffffffff82111761060857604052565b6060810190811067ffffffffffffffff82111761060857604052565b6040810190811067ffffffffffffffff82111761060857604052565b90601f601f19910116810190811067ffffffffffffffff82111761060857604052565b67ffffffffffffffff811161060857601f01601f191660200190565b81601f8201121561151b5780359061241f826123ec565b9261242d60405194856123c9565b8284526020838301011161151b57816000926020809301838601378301015290565b9080601f8301121561151b5781359067ffffffffffffffff8211610608578160051b60405193602093612484858401876123c9565b8552838086019282010192831161151b578301905b8282106124a7575050505090565b81358152908301908301612499565b6020908160408183019282815285518094520193019160005b8281106124dd575050505090565b8351855293810193928101926001016124cf565b60005b8381106125045750506000910152565b81810151838201526020016124f4565b90601f19601f602093612532815180928187528780880191016124f1565b0116010190565b1561254057565b606460405162461bcd60e51b815260206004820152601f60248201527f6e6f7420617574686f72697a656420746f2063616c6c2066756e6374696f6e006044820152fd5b1561258b57565b608460405162461bcd60e51b8152602060048201526024808201527f4e6f742061207061727469636970616e7420696e20746869732074726164652060448201527f6465616c000000000000000000000000000000000000000000000000000000006064820152fd5b156125fb57565b606460405162461bcd60e51b815260206004820152601960248201527f5472616465206465616c20646f6573206e6f74206578697374000000000000006044820152fd5b600019811461264e5760010190565b634e487b7160e01b600052601160045260246000fd5b90600182811c92168015612694575b602083101461267e57565b634e487b7160e01b600052602260045260246000fd5b91607f1691612673565b8181106126a9575050565b6000815560010161269e565b80518210156105f25760209160051b010190565b80548210156105f25760005260206000200190600090565b90815491680100000000000000008310156106085782610af1916001612709950181556126c9565b565b7fbd516eb36b5d4489adb2e717e7d0ce56c1b814eda85e78ad9d8f240b24dd83375481109081612739575090565b8091506000527fbd516eb36b5d4489adb2e717e7d0ce56c1b814eda85e78ad9d8f240b24dd83356020526040600020541490565b906040519182600082549261278184612664565b9081845260019485811690816000146127ee57506001146127ab575b5050612709925003836123c9565b9093915060005260209081600020936000915b8183106127d65750506127099350820101388061279d565b855488840185015294850194879450918301916127be565b905061270995506020935060ff1991501682840152151560051b820101388061279d565b9060405191828154918282526020928383019160005283600020936000905b82821061284757505050612709925003836123c9565b855484526001958601958895509381019390910190612831565b60405161286d81612374565b60406000808352606060208401526060828401528060608401528060808401528060a0840152606060c08401528060e084015261010093818585015281610120809501526128bd6108a18261270b565b81527fbd516eb36b5d4489adb2e717e7d0ce56c1b814eda85e78ad9d8f240b24dd833560205220916009604051936128f485612374565b805485526129046001820161276d565b60208601526129156002820161276d565b6040860152600381015460608601526004810154608086015260ff600582015416151560a086015261294960068201612812565b60c08601526001600160a01b03928360078301541660e087015283600883015416908601520154169082015290565b6129846108a18261270b565b60008181526020927fbd516eb36b5d4489adb2e717e7d0ce56c1b814eda85e78ad9d8f240b24dd833a84526040808320916001600160a01b0380911692838552865260ff8285205416612af5578484527fbd516eb36b5d4489adb2e717e7d0ce56c1b814eda85e78ad9d8f240b24dd833b928387528285205415612aeb5784527fbd516eb36b5d4489adb2e717e7d0ce56c1b814eda85e78ad9d8f240b24dd8320865281842054168015612ae25783527fbd516eb36b5d4489adb2e717e7d0ce56c1b814eda85e78ad9d8f240b24dd8324855280832080549495909290845b87865282825283862054811015612ad757612a80818588206126c9565b9054600391821b1c90875b898110612aa357505050612a9e9061263f565b612a63565b82612aae828a6126c9565b905490841b1c14612ac757612ac29061263f565b612a8b565b5050505050505050505050600190565b505050505091505090565b50505091505090565b5050505091505090565b505050505050600190565b15612b0757565b606460405162461bcd60e51b815260206004820152601860248201527f5472616465206465616c206973206e6f742061637469766500000000000000006044820152fd5b9081602091031261151b5751801515810361151b5790565b9092612b9294936080936001600160a01b03809216845216602083015260408201528160608201520190612514565b90565b9190820391821161264e57565b15612ba957565b606460405162461bcd60e51b815260206004820152601f60248201527f5472616465206465616c20555344432061646472657373206e6f7420736574006044820152fd5b15612bf457565b606460405162461bcd60e51b815260206004820152601460248201527f55534443207472616e73666572206661696c65640000000000000000000000006044820152fd5b806000190482118115151661264e570290565b80546000825580612c5a575050565b6127099160005260206000209081019061269e565b3d15612c9a573d90612c80826123ec565b91612c8e60405193846123c9565b82523d6000602084013e565b606090565b9081602091031261151b57516001600160a01b038116810361151b5790565b6000916040516020918480808585017f4e3432fe000000000000000000000000000000000000000000000000000000009586825288602482015260248152612d0581612391565b5190305afa612d12612c6f565b9080612f3d575b612f0b575b508091612e22612e3786612dab602260405195805184820190612d4481878b01846124f1565b880190612d81848a7f2d4300000000000000000000000000000000000000000000000000000000000094858a82015203600281018c52018a6123c9565b612d96604051968794519283918601906124f1565b8201908c8201520360028101845201826123c9565b604051928391612df28a8401967f9ead3d470000000000000000000000000000000000000000000000000000000088528c60248601526080604486015260a4850190612514565b907fffffffffffffffffffffffffffffffffffffffffffffffffffffffffffffffdc848303016064850152612514565b6001608483015203601f1981018352826123c9565b519082305af1612e45612c6f565b9080612f01575b612edc575b506001600160a01b039283851615612e6b575b5050505090565b600091829160405190858201928352602482015260248152612e8c81612391565b5190305afa612e99612c6f565b9080612ed2575b612eab575b80612e64565b81612ebc9282518301019101612c9f565b1680612eca575b8080612ea5565b905038612ec3565b5080511515612ea0565b6001600160a01b03919450808380612ef993518301019101612c9f565b169238612e51565b5080511515612e4c565b6001600160a01b039150808580612f2793518301019101612c9f565b1680612f34578590612d1e565b94505050505090565b5080511515612d1956fea2646970667358221220682ccabd9bad33292123c9bd1d8591d75fac836bcd35e44ddba7f0e714409bae64736f6c63430008100033",
    "libraries": {
        "AddressSet": "0x1699b43c0C3cc1d24C1C146Aad9b20e48aB68059",
        "AttributeLib": "0x1b427Ea47deE55dB1ba5B575C7C127C3CFc18144",
        "Base64": "0x0da328A90A202FE4671E6AD89065AAB20C26280F",
        "Bytes32Set": "0xe1191c7A6053279800db1214e5B1B07181948664",
        "CarbonCreditLib": "0x479feCd08400dD54a4950cC9a27895d010Adb5eE",
        "DiamondFactoryLib": "0x8ffa82D09eeB6F246C5Ba97a0Fd641fc9Ee88641",
        "DiamondLib": "0x6e83c797ed9ac196A39a5275A8971e29A5717cbD",
        "ERC721AEnumerationLib": "0x449d6999d0bb005D1f8EBF54aA3d7f7af1F13cC7",
        "ERC721ALib": "0x3Ef355A1bEBFd56B80DAC00E31D74469628bFcC3",
        "Identity": "0x5E1669E71DdcbE347Ec4EA66804014f880a10D4d",
        "IdentityFactory": "0x32de103e902579795705eeA3B3739c6b1Db9c63c",
        "IdentitySystemStorage": "0x3F1ceC63417803757ED90CBAf75Dd75B2579250F",
        "LibDiamond": "0x82667FEa235EaF3fb4F1397448004ea6AF9b9D71",
        "MerkleProver": "0x89715654639B17764f6Fb7Dd5109D25EF5e44F25",
        "MetadataLib": "0x316b94e1c9077e0999E095f3840f2Ef18d4aA7D9",
        "MultiSaleLib": "0x5cABcf66582A7FBaa1598D812482d3e5d18E0905",
        "Strings": "0xE41CbbEc0f1266084eC8D9D53c132ba1a85b1B55",
        "StringsLib": "0xc630a19B087eb9CE95b7a4Ef579d1F72B706013e",
        "SVGTemplatesLib": "0xddf2FADaB4DaA2aD68C4Cb70EB73a53B644aAf43",
        "UInt256Set": "0x8126388aa1c18Eb10CCd1B1c633c86f476CF97A1",
        "VariablePriceLib": "0x801d9817B58596EE6916e910E83c66806EE3ED12"
    },
    "devdoc": {
        "kind": "dev",
        "methods": {},
        "version": 1
    },
    "userdoc": {
        "kind": "user",
        "methods": {},
        "version": 1
    },
    "storageLayout": {
        "storage": [],
        "types": null
    }
}