{
  "address": "0x678009Eb450cCfD795C7D80f82ee2BBC1F7F225e",
  "abi": [
    {
      "anonymous": false,
      "inputs": [
        {
          "indexed": true,
          "internalType": "uint256",
          "name": "tradeDealId",
          "type": "uint256"
        },
        {
          "indexed": false,
          "internalType": "uint256",
          "name": "totalInterest",
          "type": "uint256"
        },
        {
          "indexed": false,
          "internalType": "uint256",
          "name": "invoicePoolInterest",
          "type": "uint256"
        },
        {
          "indexed": false,
          "internalType": "uint256",
          "name": "vabiInterest",
          "type": "uint256"
        },
        {
          "indexed": false,
          "internalType": "uint256",
          "name": "vabiTokensMinted",
          "type": "uint256"
        }
      ],
      "name": "InterestDistributedForTradeDeal",
      "type": "event"
    },
    {
      "anonymous": false,
      "inputs": [
        {
          "indexed": true,
          "internalType": "uint256",
          "name": "tradeDealId",
          "type": "uint256"
        },
        {
          "indexed": true,
          "internalType": "uint256",
          "name": "tokenId",
          "type": "uint256"
        }
      ],
      "name": "InvoiceDepositedToTradeDeal",
      "type": "event"
    },
    {
      "anonymous": false,
      "inputs": [
        {
          "indexed": true,
          "internalType": "uint256",
          "name": "tradeDealId",
          "type": "uint256"
        },
        {
          "indexed": true,
          "internalType": "uint256",
          "name": "tokenId",
          "type": "uint256"
        }
      ],
      "name": "InvoiceWithdrawnFromTradeDeal",
      "type": "event"
    },
    {
      "anonymous": false,
      "inputs": [
        {
          "indexed": true,
          "internalType": "uint256",
          "name": "tradeDealId",
          "type": "uint256"
        }
      ],
      "name": "TradeDealActivated",
      "type": "event"
    },
    {
      "anonymous": false,
      "inputs": [
        {
          "indexed": true,
          "internalType": "uint256",
          "name": "tradeDealId",
          "type": "uint256"
        },
        {
          "indexed": false,
          "internalType": "string",
          "name": "name",
          "type": "string"
        },
        {
          "indexed": false,
          "internalType": "string",
          "name": "symbol",
          "type": "string"
        },
        {
          "indexed": false,
          "internalType": "uint256",
          "name": "interestRate",
          "type": "uint256"
        },
        {
          "indexed": false,
          "internalType": "uint256",
          "name": "vabbToVabiRatio",
          "type": "uint256"
        },
        {
          "indexed": false,
          "internalType": "bool",
          "name": "active",
          "type": "bool"
        },
        {
          "indexed": false,
          "internalType": "address",
          "name": "nftAddress",
          "type": "address"
        },
        {
          "indexed": false,
          "internalType": "address",
          "name": "vabbAddress",
          "type": "address"
        },
        {
          "indexed": false,
          "internalType": "address",
          "name": "vabiAddress",
          "type": "address"
        },
        {
          "indexed": false,
          "internalType": "address",
          "name": "usdcAddress",
          "type": "address"
        }
      ],
      "name": "TradeDealCreated",
      "type": "event"
    },
    {
      "anonymous": false,
      "inputs": [
        {
          "indexed": true,
          "internalType": "uint256",
          "name": "tradeDealId",
          "type": "uint256"
        }
      ],
      "name": "TradeDealDeactivated",
      "type": "event"
    },
    {
      "anonymous": false,
      "inputs": [
        {
          "indexed": true,
          "internalType": "uint256",
          "name": "tradeDealId",
          "type": "uint256"
        },
        {
          "indexed": false,
          "internalType": "uint256",
          "name": "fundingTarget",
          "type": "uint256"
        }
      ],
      "name": "TradeDealFullyFunded",
      "type": "event"
    },
    {
      "anonymous": false,
      "inputs": [
        {
          "indexed": true,
          "internalType": "uint256",
          "name": "tradeDealId",
          "type": "uint256"
        },
        {
          "indexed": true,
          "internalType": "address",
          "name": "recipient",
          "type": "address"
        },
        {
          "indexed": false,
          "internalType": "uint256",
          "name": "amount",
          "type": "uint256"
        }
      ],
      "name": "TradeDealFundingWithdrawn",
      "type": "event"
    },
    {
      "anonymous": false,
      "inputs": [
        {
          "indexed": true,
          "internalType": "uint256",
          "name": "tradeDealId",
          "type": "uint256"
        },
        {
          "indexed": true,
          "internalType": "address",
          "name": "participant",
          "type": "address"
        }
      ],
      "name": "TradeDealParticipantAdded",
      "type": "event"
    },
    {
      "anonymous": false,
      "inputs": [
        {
          "indexed": true,
          "internalType": "uint256",
          "name": "tradeDealId",
          "type": "uint256"
        },
        {
          "indexed": true,
          "internalType": "address",
          "name": "participant",
          "type": "address"
        }
      ],
      "name": "TradeDealParticipantRemoved",
      "type": "event"
    },
    {
      "anonymous": false,
      "inputs": [
        {
          "indexed": true,
          "internalType": "uint256",
          "name": "tradeDealId",
          "type": "uint256"
        },
        {
          "indexed": true,
          "internalType": "address",
          "name": "repayer",
          "type": "address"
        },
        {
          "indexed": false,
          "internalType": "uint256",
          "name": "amount",
          "type": "uint256"
        },
        {
          "indexed": false,
          "internalType": "bool",
          "name": "fullyRepaid",
          "type": "bool"
        }
      ],
      "name": "TradeDealRepaid",
      "type": "event"
    },
    {
      "anonymous": false,
      "inputs": [
        {
          "indexed": true,
          "internalType": "uint256",
          "name": "tradeDealId",
          "type": "uint256"
        },
        {
          "indexed": false,
          "internalType": "uint256[]",
          "name": "claimTopics",
          "type": "uint256[]"
        }
      ],
      "name": "TradeDealRequiredClaimTopicsSet",
      "type": "event"
    },
    {
      "anonymous": false,
      "inputs": [
        {
          "indexed": true,
          "internalType": "uint256",
          "name": "tradeDealId",
          "type": "uint256"
        },
        {
          "indexed": false,
          "internalType": "string",
          "name": "name",
          "type": "string"
        },
        {
          "indexed": false,
          "internalType": "string",
          "name": "symbol",
          "type": "string"
        },
        {
          "indexed": false,
          "internalType": "uint256",
          "name": "interestRate",
          "type": "uint256"
        },
        {
          "indexed": false,
          "internalType": "uint256",
          "name": "vabbToVabiRatio",
          "type": "uint256"
        },
        {
          "indexed": false,
          "internalType": "bool",
          "name": "active",
          "type": "bool"
        },
        {
          "indexed": false,
          "internalType": "address",
          "name": "vabbAddress",
          "type": "address"
        },
        {
          "indexed": false,
          "internalType": "address",
          "name": "vabiAddress",
          "type": "address"
        },
        {
          "indexed": false,
          "internalType": "address",
          "name": "usdcAddress",
          "type": "address"
        }
      ],
      "name": "TradeDealUpdated",
      "type": "event"
    },
    {
      "anonymous": false,
      "inputs": [
        {
          "indexed": true,
          "internalType": "uint256",
          "name": "tradeDealId",
          "type": "uint256"
        },
        {
          "indexed": false,
          "internalType": "uint256",
          "name": "amount",
          "type": "uint256"
        },
        {
          "indexed": false,
          "internalType": "address",
          "name": "depositor",
          "type": "address"
        }
      ],
      "name": "USDCDepositedToTradeDeal",
      "type": "event"
    },
    {
      "anonymous": false,
      "inputs": [
        {
          "indexed": true,
          "internalType": "uint256",
          "name": "tradeDealId",
          "type": "uint256"
        },
        {
          "indexed": false,
          "internalType": "uint256",
          "name": "amount",
          "type": "uint256"
        }
      ],
      "name": "USDCWithdrawnFromTradeDeal",
      "type": "event"
    },
    {
      "anonymous": false,
      "inputs": [
        {
          "indexed": true,
          "internalType": "uint256",
          "name": "tradeDealId",
          "type": "uint256"
        },
        {
          "indexed": true,
          "internalType": "address",
          "name": "redeemer",
          "type": "address"
        },
        {
          "indexed": false,
          "internalType": "uint256",
          "name": "vabbAmount",
          "type": "uint256"
        },
        {
          "indexed": false,
          "internalType": "uint256",
          "name": "usdcAmount",
          "type": "uint256"
        }
      ],
      "name": "VABBTokensRedeemed",
      "type": "event"
    },
    {
      "inputs": [
        {
          "internalType": "uint256",
          "name": "tradeDealId",
          "type": "uint256"
        }
      ],
      "name": "activateTradeDeal",
      "outputs": [],
      "stateMutability": "nonpayable",
      "type": "function"
    },
    {
      "inputs": [
        {
          "internalType": "string",
          "name": "name",
          "type": "string"
        },
        {
          "internalType": "string",
          "name": "symbol",
          "type": "string"
        },
        {
          "internalType": "uint256",
          "name": "interestRate",
          "type": "uint256"
        },
        {
          "internalType": "uint256",
          "name": "vabbToVabiRatio",
          "type": "uint256"
        },
        {
          "internalType": "uint256[]",
          "name": "requiredClaimTopics",
          "type": "uint256[]"
        },
        {
          "internalType": "address",
          "name": "vabbAddress",
          "type": "address"
        },
        {
          "internalType": "address",
          "name": "vabiAddress",
          "type": "address"
        },
        {
          "internalType": "address",
          "name": "usdcAddress",
          "type": "address"
        },
        {
          "internalType": "uint256",
          "name": "fundingTarget",
          "type": "uint256"
        }
      ],
      "name": "createTradeDeal",
      "outputs": [
        {
          "internalType": "uint256",
          "name": "",
          "type": "uint256"
        }
      ],
      "stateMutability": "nonpayable",
      "type": "function"
    },
    {
      "inputs": [
        {
          "internalType": "uint256",
          "name": "tradeDealId",
          "type": "uint256"
        }
      ],
      "name": "deactivateTradeDeal",
      "outputs": [],
      "stateMutability": "nonpayable",
      "type": "function"
    },
    {
      "inputs": [],
      "name": "diamondOwner",
      "outputs": [
        {
          "internalType": "address",
          "name": "",
          "type": "address"
        }
      ],
      "stateMutability": "view",
      "type": "function"
    },
    {
      "inputs": [],
      "name": "getAllTradeDealIds",
      "outputs": [
        {
          "internalType": "uint256[]",
          "name": "",
          "type": "uint256[]"
        }
      ],
      "stateMutability": "view",
      "type": "function"
    },
    {
      "inputs": [
        {
          "internalType": "uint256",
          "name": "tradeDealId",
          "type": "uint256"
        }
      ],
      "name": "getTradeDealFullStatus",
      "outputs": [
        {
          "internalType": "uint256",
          "name": "fundingTarget",
          "type": "uint256"
        },
        {
          "internalType": "uint256",
          "name": "currentBalance",
          "type": "uint256"
        },
        {
          "internalType": "bool",
          "name": "isFunded",
          "type": "bool"
        },
        {
          "internalType": "bool",
          "name": "isFundingWithdrawn",
          "type": "bool"
        },
        {
          "internalType": "uint256",
          "name": "totalDebt",
          "type": "uint256"
        },
        {
          "internalType": "uint256",
          "name": "repaidAmount",
          "type": "uint256"
        },
        {
          "internalType": "bool",
          "name": "isRepaid",
          "type": "bool"
        }
      ],
      "stateMutability": "view",
      "type": "function"
    },
    {
      "inputs": [
        {
          "internalType": "uint256",
          "name": "tradeDealId",
          "type": "uint256"
        }
      ],
      "name": "getTradeDealInfo",
      "outputs": [
        {
          "internalType": "string",
          "name": "name",
          "type": "string"
        },
        {
          "internalType": "string",
          "name": "symbol",
          "type": "string"
        },
        {
          "internalType": "uint256",
          "name": "interestRate",
          "type": "uint256"
        },
        {
          "internalType": "uint256",
          "name": "vabbToVabiRatio",
          "type": "uint256"
        },
        {
          "internalType": "bool",
          "name": "active",
          "type": "bool"
        }
      ],
      "stateMutability": "view",
      "type": "function"
    },
    {
      "inputs": [
        {
          "internalType": "uint256",
          "name": "tradeDealId",
          "type": "uint256"
        }
      ],
      "name": "getTradeDealRequiredClaimTopics",
      "outputs": [
        {
          "internalType": "uint256[]",
          "name": "",
          "type": "uint256[]"
        }
      ],
      "stateMutability": "view",
      "type": "function"
    },
    {
      "inputs": [
        {
          "internalType": "uint256",
          "name": "tradeDealId",
          "type": "uint256"
        }
      ],
      "name": "getTradeDealTokenAddresses",
      "outputs": [
        {
          "internalType": "address",
          "name": "nftAddress",
          "type": "address"
        },
        {
          "internalType": "address",
          "name": "vabbAddress",
          "type": "address"
        },
        {
          "internalType": "address",
          "name": "vabiAddress",
          "type": "address"
        },
        {
          "internalType": "address",
          "name": "usdcAddress",
          "type": "address"
        }
      ],
      "stateMutability": "view",
      "type": "function"
    },
    {
      "inputs": [
        {
          "internalType": "uint256",
          "name": "tradeDealId",
          "type": "uint256"
        }
      ],
      "name": "isTradeDealFunded",
      "outputs": [
        {
          "internalType": "bool",
          "name": "",
          "type": "bool"
        }
      ],
      "stateMutability": "view",
      "type": "function"
    },
    {
      "inputs": [
        {
          "internalType": "uint256",
          "name": "tradeDealId",
          "type": "uint256"
        },
        {
          "internalType": "address",
          "name": "user",
          "type": "address"
        }
      ],
      "name": "isTradeDealParticipant",
      "outputs": [
        {
          "internalType": "bool",
          "name": "",
          "type": "bool"
        }
      ],
      "stateMutability": "view",
      "type": "function"
    },
    {
      "inputs": [
        {
          "internalType": "uint256",
          "name": "tradeDealId",
          "type": "uint256"
        }
      ],
      "name": "isTradeDealRepaid",
      "outputs": [
        {
          "internalType": "bool",
          "name": "",
          "type": "bool"
        }
      ],
      "stateMutability": "view",
      "type": "function"
    },
    {
      "inputs": [
        {
          "internalType": "uint256",
          "name": "tradeDealId",
          "type": "uint256"
        },
        {
          "internalType": "uint256",
          "name": "vabbAmount",
          "type": "uint256"
        }
      ],
      "name": "redeemVABBTokens",
      "outputs": [],
      "stateMutability": "nonpayable",
      "type": "function"
    },
    {
      "inputs": [
        {
          "internalType": "uint256",
          "name": "tradeDealId",
          "type": "uint256"
        },
        {
          "internalType": "uint256",
          "name": "amount",
          "type": "uint256"
        }
      ],
      "name": "repayTradeDeal",
      "outputs": [],
      "stateMutability": "nonpayable",
      "type": "function"
    },
    {
      "inputs": [
        {
          "internalType": "uint256",
          "name": "",
          "type": "uint256"
        },
        {
          "internalType": "address",
          "name": "",
          "type": "address"
        }
      ],
      "name": "setTradeDealNFTAddress",
      "outputs": [],
      "stateMutability": "nonpayable",
      "type": "function"
    },
    {
      "inputs": [
        {
          "internalType": "uint256",
          "name": "tradeDealId",
          "type": "uint256"
        },
        {
          "internalType": "uint256[]",
          "name": "claimTopics",
          "type": "uint256[]"
        }
      ],
      "name": "setTradeDealRequiredClaimTopics",
      "outputs": [],
      "stateMutability": "nonpayable",
      "type": "function"
    },
    {
      "inputs": [
        {
          "internalType": "uint256",
          "name": "tradeDealId",
          "type": "uint256"
        },
        {
          "internalType": "address",
          "name": "",
          "type": "address"
        },
        {
          "internalType": "address",
          "name": "vabbAddress",
          "type": "address"
        },
        {
          "internalType": "address",
          "name": "vabiAddress",
          "type": "address"
        },
        {
          "internalType": "address",
          "name": "usdcAddress",
          "type": "address"
        }
      ],
      "name": "setTradeDealTokenAddresses",
      "outputs": [],
      "stateMutability": "nonpayable",
      "type": "function"
    },
    {
      "inputs": [
        {
          "internalType": "uint256",
          "name": "tradeDealId",
          "type": "uint256"
        },
        {
          "internalType": "uint256",
          "name": "tokenId",
          "type": "uint256"
        }
      ],
      "name": "tdDepositInvoice",
      "outputs": [],
      "stateMutability": "nonpayable",
      "type": "function"
    },
    {
      "inputs": [
        {
          "internalType": "uint256",
          "name": "tradeDealId",
          "type": "uint256"
        },
        {
          "internalType": "uint256",
          "name": "amount",
          "type": "uint256"
        }
      ],
      "name": "tdDepositUSDC",
      "outputs": [],
      "stateMutability": "nonpayable",
      "type": "function"
    },
    {
      "inputs": [
        {
          "internalType": "uint256",
          "name": "tradeDealId",
          "type": "uint256"
        }
      ],
      "name": "tdDistributeInterest",
      "outputs": [],
      "stateMutability": "nonpayable",
      "type": "function"
    },
    {
      "inputs": [
        {
          "internalType": "uint256",
          "name": "tradeDealId",
          "type": "uint256"
        },
        {
          "internalType": "uint256",
          "name": "tokenId",
          "type": "uint256"
        }
      ],
      "name": "tdWithdrawInvoice",
      "outputs": [],
      "stateMutability": "nonpayable",
      "type": "function"
    },
    {
      "inputs": [
        {
          "internalType": "uint256",
          "name": "tradeDealId",
          "type": "uint256"
        },
        {
          "internalType": "uint256",
          "name": "amount",
          "type": "uint256"
        }
      ],
      "name": "tdWithdrawUSDC",
      "outputs": [],
      "stateMutability": "nonpayable",
      "type": "function"
    },
    {
      "inputs": [
        {
          "internalType": "uint256",
          "name": "tradeDealId",
          "type": "uint256"
        },
        {
          "internalType": "string",
          "name": "name",
          "type": "string"
        },
        {
          "internalType": "string",
          "name": "symbol",
          "type": "string"
        },
        {
          "internalType": "uint256",
          "name": "interestRate",
          "type": "uint256"
        },
        {
          "internalType": "uint256",
          "name": "vabbToVabiRatio",
          "type": "uint256"
        },
        {
          "internalType": "address",
          "name": "vabbAddress",
          "type": "address"
        },
        {
          "internalType": "address",
          "name": "vabiAddress",
          "type": "address"
        },
        {
          "internalType": "address",
          "name": "usdcAddress",
          "type": "address"
        }
      ],
      "name": "updateTradeDeall",
      "outputs": [],
      "stateMutability": "nonpayable",
      "type": "function"
    },
    {
      "inputs": [
        {
          "internalType": "uint256",
          "name": "tradeDealId",
          "type": "uint256"
        }
      ],
      "name": "withdrawTradeDealFunding",
      "outputs": [],
      "stateMutability": "nonpayable",
      "type": "function"
    }
  ],
  "transactionHash": "0xa09de6fa56a232061410d5395af3c0517e5528e940da9cd9aede0f207c85bef8",
  "args": [],
  "numDeployments": 1,
  "solcInputHash": "3e9523ba19c4c4e7f6254f024ebdfad9",
  "bytecode": "0x6080806040523461001657613a75908161001c8239f35b600080fdfe6080604052600436101561001257600080fd5b6000803560e01c806313d6b5f61461297b5780631504e3e1146128ba5780631718d7af1461289357806319cc10c0146124845780634b0b57f61461233d5780634c9f67dc14611dd05780634f742606146117945780635a6e71c3146117405780637949ba001461166a5780637d1f54b81461151a5780637d25491514611403578063837e3d02146112305780638dcb9331146112115780638ed5db6614610dfa5780639362285a14610d1f57806397f29d0914610cf65780639ee0770814610c70578063b68f012514610c1c578063d2a6f69c14610807578063e246a8ce14610551578063e3f7cc92146104da578063e4efe117146104a4578063e6ad4611146103e65763ecbf40d91461012557600080fd5b346103e3576020806003193601126103df5760043561014c61014733836130c6565b612c7a565b61015461355d565b5061016661016182612e8d565b612cd2565b8083526000805160206139a08339815191529182815261018f60ff60056040872001541661322d565b610198826134c3565b1561039b578184526000805160206139808339815191529283825260ff60408620541661035a57828552600080516020613960833981519152825260408520541561030957828552815260408420600901546001600160a01b0316906101ff821515613302565b8285526000805160206138e08339815191528152604080862054948252808620805460ff191660011790555163a9059cbb60e01b8152918190839081888161024b8a33600484016133d3565b03925af19182156102fe577f92fd71072fa44ba11968090604eaea2a1d7665490983ea784ab89233ec8f58c6926102899187916102d1575b50613370565b8285526000805160206139e08339815191528152604085206102ac8582546132c0565b90558360406102b961355d565b858152338482015201526040519384523393a3604051f35b6102f19150833d85116102f7575b6102e98183612ac0565b810190613274565b38610283565b503d6102df565b6040513d87823e3d90fd5b60405162461bcd60e51b815260048101839052602360248201527f4e6f20696e766f69636573206465706f736974656420617320636f6c6c6174656044820152621c985b60ea1b6064820152608490fd5b60405162461bcd60e51b8152600481018390526019602482015278233ab73234b7339030b63932b0b23c903bb4ba34323930bbb760391b6044820152606490fd5b6064906040519062461bcd60e51b82526004820152601e60248201527f5472616465206465616c206973206e6f742066756c6c792066756e64656400006044820152fd5b5080fd5b80fd5b50346103e35760203660031901126103e35760043560018060a01b03600080516020613a2083398151915254163314801561049b575b61042590612c2e565b8160405161043281612a40565b5261043f61016182612e8d565b8082526000805160206139a08339815191526020526005604083200160ff1981541690558060405161047081612a40565b52604051907f18a646ad5e9e25d43bd35451aefc591a1c2ec6fc53626bc814c3e5561da5f57b8383a2f35b5030331461041c565b50346103e357806003193601126103e357600080516020613a20833981519152546040516001600160a01b039091168152602090f35b50346103e35760203660031901126103e35761052f6104fa600435612fbe565b602081015190604081015160608201519161053d60a0608083015192015115159260405196879660a0885260a0880190612c09565b908682036020880152612c09565b926040850152606084015260808301520390f35b50346103e35761056036612a2a565b9061056e61014733836130c6565b6105766132cd565b5061058361016182612e8d565b8083526000805160206139a08339815191526020908082526105ae60ff60056040882001541661322d565b828552600080516020613980833981519152825260ff604086205416156107c65782855260008051602061390083398151915282526040852054906000805160206138808339815191529081845260408720548084116000146107bf5761061590846132c0565b801561077d57861161073857848752835260408620600901546001600160a01b0316610642811515613302565b8360405180926323b872dd60e01b8252818a816106648c30336004850161334e565b03925af1801561072d5761067e9188916107165750613370565b838652808352604086206106938682546133b3565b90558386526000805160206139e08339815191528352604086206106b88682546133b3565b9055838652825260408520541015908160606106d26132cd565b858152338482015286604082015201526040519384528301527f910d02d88dc4db903a003bcb42832276104ff07a90c46ad3f5f242549936292360403393a3604051f35b6102f19150853d87116102f7576102e98183612ac0565b6040513d89823e3d90fd5b60405162461bcd60e51b815260048101859052601d60248201527f416d6f756e7420657863656564732072656d61696e696e6720646562740000006044820152606490fd5b60405162461bcd60e51b815260048101869052601a6024820152794e6f2072656d61696e696e67206465627420746f20726570617960301b6044820152606490fd5b5086610615565b60405162461bcd60e51b8152600481018390526019602482015278233ab73234b733903737ba103cb2ba103bb4ba34323930bbb760391b6044820152606490fd5b50346103e35761081636612a2a565b9061082133826130c6565b8015610bfb575b61083190612c7a565b6040519161083e83612a8a565b60008352600060208094015261085661016183612e8d565b6040516331a9108f60e11b8152600481018290526024939081818681305afa908115610a54578691610bba575b506001600160a01b03903090821603610b76578386526000805160206138c083398151915290818352604087208488528352338160408920541614908115610b5b575b5015610ae157838652600080516020613960833981519152825260408620948695875b815480821015610ad45786906108ff8385612df8565b929054600393841b1c1461091d57505061091890612d84565b6108e9565b91909394959697985060001991828101908111610ac1579061095261094561096d9386612df8565b905490871b1c9185612df8565b90919082549060031b600019811b9283911b16911916179055565b81548015610aae578101926109828484612df8565b81939154921b1b191690555560015b15610a5f5750906109c991816040516109a981612a40565b878152604051809581926326aac97560e11b83528833306004860161328c565b038189305af1928315610a54578493610a37575b5084865281526040808620838752825280862080546001600160a01b031916905551610a0881612a8a565b8481520152604051917fa92b2c8f01281ad4d8e4dff3f27cbe455644c050115ef8a0521ed35ab210b3bd8484a3f35b610a4d90833d85116102f7576102e98183612ac0565b50386109dd565b6040513d88823e3d90fd5b826084916040519162461bcd60e51b83526004830152808201527f496e766f696365206e6f7420666f756e6420696e2074686973207472616465206044820152631919585b60e21b6064820152fd5b634e487b7160e01b8a526031600452848afd5b634e487b7160e01b8b526011600452858bfd5b5050509091929394610991565b60405162461bcd60e51b8152600481018390526047818701527f4f6e6c7920746865206f726967696e616c206465706f7369746f72206f72206360448201527f6f6e7472616374206f776e65722063616e207769746864726177207468697320606482015266696e766f69636560c81b608482015260a490fd5b9050600080516020613a2083398151915254163314386108c6565b60405162461bcd60e51b815260048101839052601e818701527f4e4654206e6f74206f776e6564206279207468697320636f6e747261637400006044820152606490fd5b90508181813d8311610bf4575b610bd18183612ac0565b81010312610bf057516001600160a01b0381168103610bf05738610883565b8580fd5b503d610bc7565b50600080516020613a20833981519152546001600160a01b03163314610828565b50346103e35760203660031901126103e357610c606040610c6c92600435610c4661016182612e8d565b81526000805160206138a083398151915260205220612f6f565b60405191829182612bab565b0390f35b50346103e357806003193601126103e35760405160008051602061394083398151915280548083526000918252602080840193927f696bba000635c29ab48970a9bb3a30c259f244f79f191799986d75d3ccbf99f892915b828210610cdf57610c6c85610c6081890382612ac0565b835486529485019460019384019390910190610cc8565b50346103e35760203660031901126103e3576020610d15600435613513565b6040519015158152f35b50346103e3576020806003193601126103df579060e091600435610d4561016182612e8d565b8083526000805160206138e083398151915282526040832054926000805160206139e083398151915283526040812054610d7e836134c3565b838352600080516020613980833981519152855260ff604084205416916000805160206139008339815191528652610dcf604080862054956000805160206138808339815191528952205495613513565b956040519788528701521515604086015215156060850152608084015260a0830152151560c0820152f35b50346103e3576101003660031901126103e3576024356001600160401b0381116103df57610e2c903690600401612afe565b6044356001600160401b03811161120d57610e4b903690600401612afe565b610e536129e8565b610e5b6129fe565b90610e64612a14565b9260018060a01b03600080516020613a20833981519152541633148015611204575b610e8f90612c2e565b610e97612e35565b50610ea6610161600435612e8d565b60043586526000805160206139a08339815191526020526040862085519092906001600160401b03811161114857610ee16001850154612d93565b601f81116111d1575b50806020601f821160011461116757899161115c575b508160011b916000199060031b1c19161760018401555b81516001600160401b03811161114857610f346002850154612d93565b601f811161110a575b506020601f821160011461108857918161105198969492600080516020613a008339815191529896948b9161107d575b508160011b916000199060031b1c19161760028401555b6064359788928360038601556084359283600487015561010060ff6005600789019360018060a01b03169860018060a01b0319948a86825416179055600881019a60018060a01b03169a8b86825416179055600981019b60018060a01b03169b8c8096825416179055610ff5612e35565b986004358a528d60208b01528660408b015260608a01528760808a01520154161515958660a08201528760c08201528860e08201520152611043604051986101008a526101008a0190612c09565b9088820360208a0152612c09565b9760408701526060860152608085015260a084015260c083015260e082015280600435930390a2604051f35b905083015138610f6d565b6002850189526020892090895b601f19841681106110f2575082600080516020613a00833981519152989694926001926110519b999795601f198116106110d9575b5050811b016002840155610f84565b85015160001960f88460031b161c1916905538806110ca565b90916020600181928589015181550193019101611095565b61113890600286018a5260208a20601f840160051c8101916020851061113e575b601f0160051c0190612dcd565b38610f3d565b909150819061112b565b634e487b7160e01b88526041600452602488fd5b905087015138610f00565b91506001850189526020892089925b601f19831684106111b9576001935082601f198116106111a0575b5050811b016001840155610f17565b89015160001960f88460031b161c191690553880611191565b89810151825560209384019360019092019101611176565b6111fe90600186018a5260208a20601f840160051c8101916020851061113e57601f0160051c0190612dcd565b38610eea565b50303314610e86565b8280fd5b50346103e35760203660031901126103e3576020610d156004356134c3565b50346103e35761123f36612a2a565b61124933836130c6565b80156113e2575b61125990612c7a565b6112d460405161126881612a8a565b60008152600060208092015261128061016185612e8d565b8385526000805160206139a083398151915281526112a760ff60056040882001541661322d565b806040516112b481612a40565b868152604051809481926326aac97560e11b83528730336004860161328c565b038188305af19182156102fe5783926113c5575b50838552600080516020613960833981519152815261130a8260408720612e10565b8385526000805160206138c083398151915281526040808620838752825280862080546001600160a01b031916331790555161138a9061134981612aa5565b602881527f5265636f7264696e67206f726967696e616c206465706f7369746f72206f6620838201526734b73b37b4b1b29d60c11b604082015233906137fc565b60405161139681612a8a565b8481520152604051917f0b66693e511e1dc453c70056959759d92966a30195684323c1a530209e3e32308484a3f35b6113db90823d84116102f7576102e98183612ac0565b50386112e8565b50600080516020613a20833981519152546001600160a01b03163314611250565b50346103e3576020806003193601126103df577f4ddc37c9b2de1d019f8484c159dcde5663dbe44fecc540fad47b4a608e8e70f260806004359260018060a01b03600080516020613a20833981519152541633148015611511575b61146790612c2e565b61146f61344a565b5061147c61016185612e8d565b8385526000805160206139a08339815191528082526114a460ff60056040892001541661322d565b84865281526127106114d4604087206000805160206139e0833981519152845260036040892054910154906133c0565b0485836114df61344a565b8781528385820152836040820152826060820152015260405191818352820152846040820152846060820152a2604051f35b5030331461145e565b50346103e35760403660031901126103e3576004356024356001600160401b03811161120d5761154e903690600401612b45565b600080516020613a20833981519152546001600160a01b031633148015611661575b61157990612c2e565b611581613485565b5061158e61016183612e8d565b8183526000805160206138a08339815191529160208381526115b26040862061349f565b8185526000805160206139a0833981519152908181526006926115d984604089200161349f565b865b8551811015611629576116249082895287845261160660408a206115ff838a612de4565b5190612e10565b82895284845261161f8660408b20016115ff838a612de4565b612d84565b6115db565b5060008051602061392083398151915261165986808a95611648613485565b868152015260405191829182612bab565b0390a2604051f35b50303314611570565b50346103e35760a03660031901126103e3576004356116876129d2565b506044356001600160a01b03818116929183900361173b5760643581811680910361173b576084359282841680940361173b57600992600080516020613a20833981519152541633148015611732575b6116e090612c2e565b6116ec61016182612e8d565b85526000805160206139a083398151915260205260408520906007820160018060a01b031995868254161790556008820190858254161790550191825416179055604051f35b503033146116d7565b600080fd5b50346103e35760403660031901126103e35761175a6129d2565b50600080516020613a20833981519152546001600160a01b03163314801561178b575b61178690612c2e565b604051f35b5030331461177d565b50346103e3576101203660031901126103e3576004356001600160401b0381116103df576117c6903690600401612afe565b6024356001600160401b03811161120d576117e5903690600401612afe565b6084356001600160401b038111611dcc57611804903690600401612b45565b61180c6129e8565b6118146129fe565b9361181d612a14565b9560018060a01b03600080516020613a20833981519152541633148015611dc3575b61184890612c2e565b8296611852612d1a565b506000805160206138608339815191529687549761186f89612d84565b90558783526000805160206139a08339815191526020526040832088815584519095906001600160401b038111611d07576118ad6001880154612d93565b601f8111611d90575b50806020601f8211600114611d26578691611d1b575b508160011b916000199060031b1c19161760018701555b87516001600160401b038111611d07576119006002880154612d93565b601f8111611cd4575b50806020601f8211600114611c69578691611c5e575b508160011b916000199060031b1c19161760028701555b6044356003870155606435600487015560058601805460ff191660011790556001600160a01b031615611c4c575b6007850180546001600160a01b038b81166001600160a01b03199283161790925560088701805484841690831617905560098701805492851692909116919091179055855115159485611be2575b508783526000805160206138e08339815191526020526101043560408420556000805160206138808339815191526020528260408120556000805160206139008339815191526020528260408120556000805160206139808339815191526020526040832060ff1981541690556000805160206139408339815191525498600160401b8a1015611bcc5760018a0180600080516020613940833981519152558a1015611bb657611b3389987fed0366d8af5e5ed4eb6e11fb3853d3ba064a0723f1e824313b66b3bde66455ce98611b26988b60209e6000805160206139408339815191526000528f60002001558760c0611aaa612d1a565b9e8f90815260208c9082015285604082015260443560608201526064356080820152600160a082015201528c60e060018060a01b0387169101528c61010060018060a01b0388169101528c61012060018060a01b0389169101526101408d01526101608c01526040519788976101208952610120890190612c09565b908782038d890152612c09565b604435604087015260643560608701526001608087015260a08601949094526001600160a01b0390811660c086015290811660e0850152166101008301520390a2610140810151611b88575b51604051908152f35b8051600080516020613920833981519152611bae61016084015160405191829182612bab565b0390a2611b7f565b634e487b7160e01b600052603260045260246000fd5b634e487b7160e01b600052604160045260246000fd5b949183999491989697935b8851811015611c3c5780611c11611c07611c37938c612de4565b5160068a01612e10565b888c526000805160206138a083398151915260205261161f60408d206115ff838d612de4565b611bed565b50919450929791959496386119b2565b9750611c5886886135db565b97611964565b90508901513861191f565b91506002880186526020862086925b8b601f1984168510611cbd57506001935082601f19811610611ca4575b5050811b016002870155611936565b8b015160001960f88460031b161c191690553880611c95565b810151825560209384019360019092019101611c78565b611d019060028901875260208720601f840160051c8101916020851061113e57601f0160051c0190612dcd565b38611909565b634e487b7160e01b85526041600452602485fd5b9050860151386118cc565b91506001880186526020862086925b601f1983168410611d78576001935082601f19811610611d5f575b5050811b0160018701556118e3565b88015160001960f88460031b161c191690553880611d50565b88810151825560209384019360019092019101611d35565b611dbd9060018901875260208720601f840160051c8101916020851061113e57601f0160051c0190612dcd565b386118b6565b5030331461183f565b8380fd5b50346103e357611ddf36612a2a565b90611dea33826130c6565b801561231c575b611dfa90612c7a565b611e026132cd565b50611e0f61016182612e8d565b8083526000805160206139a0833981519152602090808252611e3a60ff60056040882001541661322d565b82855281526040842060098101546001600160a01b03908116611e5e811515613302565b8487526000805160206138e083398151915284526040872054956000805160206139e08339815191529384865260408920549388151595866122a8575b6040516323b872dd60e01b81529488908690818e81611ebf8a30336004850161334e565b03925af194851561229d578a95611edc918d916122865750613370565b888b52875260408a20611ef08482546133b3565b9055611efc33896130c6565b1561221f575b6007820154168061201d575b50848061200a575b611fd0575b50611f246132cd565b9586528486019281845284611fb9575b505050604084019115158252606084019485527fc1b8947c6758630f23bff8bd2780c81fe365b6cdf5372314590ea21245fb808360408551925181519081523386820152a251611f85575b83604051f35b7f61e4e7bdd5b89b0b3b83a8990dae7d759e603f368d2d86454c8f31136a075f3691519251604051908152a2388080611f7f565b611fc5929394506133b3565b101590843880611f34565b612710611fe46003611feb930154856133c0565b04836133b3565b8689526000805160206139008339815191528652604089205538611f1b565b508261201683866133b3565b1015611f16565b925060058101805460ff19600181831617835564e8d4a5100085600019048111861515166122095785028c873b156103e3578c97818c9260405180936340c10f1960e01b82528183816120748a33600484016133d3565b03925af191826121e5575b50509160ff9391849315600014612122576000915081906120f16120ff6040516120a881612a8a565b601a8152794661696c656420746f206d696e74205641424220746f6b656e7360301b848201526040519283918583019563104c13eb60e21b875260248401526044830190612c09565b03601f198101835282612ac0565b51906a636f6e736f6c652e6c6f675afa505b845416921615151617905538611f0e565b6000916121bb6121cf849361217760405161213c81612aa5565b602281527f5375636365737366756c6c79206d696e746564205641424220746f6b656e73208382015261746f60f01b604082015233906137fc565b6040519361218485612a8a565b600785526620b6b7bab73a1d60c91b82860152604051938492830195632d839cb360e21b8752604060248501526064840190612c09565b90604483015203601f198101835282612ac0565b51906a636f6e736f6c652e6c6f675afa50612111565b9092506121f59193949950612a5b565b6122055790898c97928e3861207f565b8c80fd5b634e487b7160e01b600052601160045260246000fd5b60008760405161222e81612a8a565b828152015261223f61016189612e8d565b878a526000805160206139c0833981519152875260408a203360005287526040600020600160ff1982541617905560405161227981612a8a565b8881528733910152611f02565b6102f191508a3d8c116102f7576102e98183612ac0565b6040513d8d823e3d90fd5b858a1115612316576122ba868b6132c0565b841115611e9b5760405162461bcd60e51b815260048101899052602760248201527f416d6f756e7420657863656564732072656d61696e696e672066756e64696e67604482015266081b995959195960ca1b6064820152608490fd5b8a6122ba565b50600080516020613a20833981519152546001600160a01b03163314611df1565b50346103e35761234c36612a2a565b600080516020613a20833981519152546001600160a01b039081163314801561247b575b61237990612c2e565b6123816132cd565b5061238e61016184612e8d565b8284526000805160206139e0833981519152916020918383526123b782604088205410156133ee565b8486526000805160206139a08339815191528352600960408720015416926123e0841515613302565b82604051809563a9059cbb60e01b82528189816124018833600484016133d3565b03925af1938415610a54577fa539a9eb6d64ed99d8198bd12034f5b51a1e0a78e730858ba9b30c253c6e966f9461243e9188916107165750613370565b8486528252604085206124528282546132c0565b905584606061245f6132cd565b86815283858201528260408201520152604051908152a2604051f35b50303314612370565b50346103e35761249336612a2a565b9061249c6132cd565b506124a961016182612e8d565b6124b281613513565b15612850578083526000805160206139a083398151915260209081526040842060078101546009909101546001600160a01b03908116929116801561280e5782156127cc576040516370a0823160e01b81523360048201528281602481855afa801561072d578691889161279b575b501061275a576040516318160ddd60e01b8152928284600481855afa93841561072d578794612727575b5083156126e2578487526000805160206139e08339815191529182845260408820549461257888876133c0565b0494851561269d578561258c9110156133ee565b803b1561269957876040518092632770a7eb60e21b82528183816125b48d33600484016133d3565b03925af1801561268e5761267b575b5082604051809263a9059cbb60e01b8252818a816125e58a33600484016133d3565b03925af1801561072d576125ff9188916126645750613370565b8386528152604085206126138382546132c0565b90558160606126206132cd565b858152338482015286604082015201526040519384528301527f55a79e34c5e1d43676669f3001afdbc76ab84e938a325793640f66fe4638d37260403393a3604051f35b6102f19150843d86116102f7576102e98183612ac0565b61268790979197612a5b565b95386125c3565b6040513d8a823e3d90fd5b8780fd5b60405162461bcd60e51b815260048101869052601e60248201527f43616c63756c61746564205553444320616d6f756e74206973207a65726f00006044820152606490fd5b60405162461bcd60e51b815260048101849052601d60248201527f4e6f205641424220746f6b656e7320696e2063697263756c6174696f6e0000006044820152606490fd5b9093508281813d8311612753575b61273f8183612ac0565b8101031261274f5751923861254b565b8680fd5b503d612735565b60405162461bcd60e51b8152600481018390526019602482015278496e73756666696369656e7420564142422062616c616e636560381b6044820152606490fd5b809250848092503d83116127c5575b6127b48183612ac0565b8101031261274f5785905138612521565b503d6127aa565b60405162461bcd60e51b815260048101839052601a6024820152791554d110c81d1bdad95b881859191c995cdcc81b9bdd081cd95d60321b6044820152606490fd5b60405162461bcd60e51b815260048101839052601a60248201527915905090881d1bdad95b881859191c995cdcc81b9bdd081cd95d60321b6044820152606490fd5b60405162461bcd60e51b815260206004820152601b60248201527a151c985919481919585b081b9bdd08199d5b1b1e481c995c185a59602a1b6044820152606490fd5b50346103e35760403660031901126103e3576020610d156128b26129d2565b6004356130c6565b50346103e35760203660031901126103e35760043560018060a01b03600080516020613a20833981519152541633148015612972575b6128f990612c2e565b8160405161290681612a40565b5261291361016182612e8d565b8082526000805160206139a083398151915260205260056040832001600160ff198254161790558060405161294781612a40565b52604051907fbf2b21995a82cd2a31b4577ee5317f810aeeedf94f54f11104d5e8abc79f3f3b8383a2f35b503033146128f0565b50346103e35760203660031901126103e357608061299a600435612fbe565b60e081015161010082015161012090920151604080513081526001600160a01b03938416602082015293831690840152166060820152f35b602435906001600160a01b038216820361173b57565b60a435906001600160a01b038216820361173b57565b60c435906001600160a01b038216820361173b57565b60e435906001600160a01b038216820361173b57565b604090600319011261173b576004359060243590565b602081019081106001600160401b03821117611bcc57604052565b6001600160401b038111611bcc57604052565b61014081019081106001600160401b03821117611bcc57604052565b604081019081106001600160401b03821117611bcc57604052565b606081019081106001600160401b03821117611bcc57604052565b601f909101601f19168101906001600160401b03821190821017611bcc57604052565b6001600160401b038111611bcc57601f01601f191660200190565b81601f8201121561173b57803590612b1582612ae3565b92612b236040519485612ac0565b8284526020838301011161173b57816000926020809301838601378301015290565b9080601f8301121561173b578135906001600160401b038211611bcc578160051b60405193602093612b7985840187612ac0565b8552838086019282010192831161173b578301905b828210612b9c575050505090565b81358152908301908301612b8e565b6020908160408183019282815285518094520193019160005b828110612bd2575050505090565b835185529381019392810192600101612bc4565b60005b838110612bf95750506000910152565b8181015183820152602001612be9565b90602091612c2281518092818552858086019101612be6565b601f01601f1916010190565b15612c3557565b60405162461bcd60e51b815260206004820152601f60248201527f6e6f7420617574686f72697a656420746f2063616c6c2066756e6374696f6e006044820152606490fd5b15612c8157565b60405162461bcd60e51b8152602060048201526024808201527f4e6f742061207061727469636970616e7420696e2074686973207472616465206044820152631919585b60e21b6064820152608490fd5b15612cd957565b60405162461bcd60e51b8152602060048201526019602482015278151c985919481919585b08191bd95cc81b9bdd08195e1a5cdd603a1b6044820152606490fd5b6040519061018082016001600160401b03811183821017611bcc57604052606061016083600080825283602083015283604083015280848301528060808301528060a08301528060c08301528060e083015280610100830152806101208301526101408201520152565b60001981146122095760010190565b90600182811c92168015612dc3575b6020831014612dad57565b634e487b7160e01b600052602260045260246000fd5b91607f1691612da2565b818110612dd8575050565b60008155600101612dcd565b8051821015611bb65760209160051b010190565b8054821015611bb65760005260206000200190600090565b80549190600160401b831015611bcc5782610952916001612e3395018155612df8565b565b6040519061012082016001600160401b03811183821017611bcc576040528161010060009182815260606020820152606060408201528260608201528260808201528260a08201528260c08201528260e08201520152565b6000805160206138608339815191525481109081612ea9575090565b8091506000526000805160206139a08339815191526020526040600020541490565b9060405191826000825492612edf84612d93565b908184526001948581169081600014612f4c5750600114612f09575b5050612e3392500383612ac0565b9093915060005260209081600020936000915b818310612f34575050612e3393508201013880612efb565b85548884018501529485019487945091830191612f1c565b915050612e3394506020925060ff191682840152151560051b8201013880612efb565b9060405191828154918282526020928383019160005283600020936000905b828210612fa457505050612e3392500383612ac0565b855484526001958601958895509381019390910190612f8e565b604051612fca81612a6e565b60406000808352606060208401526060828401528060608401528060808401528060a0840152606060c08401528060e0840152610100938185850152816101208095015261301a61016182612e8d565b81526000805160206139a0833981519152602052209160096040519361303f85612a6e565b8054855261304f60018201612ecb565b602086015261306060028201612ecb565b6040860152600381015460608601526004810154608086015260ff600582015416151560a086015261309460068201612f6f565b60c086015260078101546001600160a01b0390811660e087015260088201548116938601939093520154169082015290565b6130d261016182612e8d565b60008181526000805160206139c0833981519152602090815260408083206001600160a01b03958616808552908352818420549295909260ff16613222578484526000805160206138a08339815191529283875282852054156132185784527fbd516eb36b5d4489adb2e717e7d0ce56c1b814eda85e78ad9d8f240b24dd832086528184205416801561320f5783527fbd516eb36b5d4489adb2e717e7d0ce56c1b814eda85e78ad9d8f240b24dd8324855280832080549495909290845b87865282825283862054811015613204576131ad81858820612df8565b9054600391821b1c90875b8981106131d0575050506131cb90612d84565b613190565b826131db828a612df8565b905490841b1c146131f4576131ef90612d84565b6131b8565b5050505050505050505050600190565b505050505091505090565b50505091505090565b5050505091505090565b505050505050600190565b1561323457565b60405162461bcd60e51b81526020600482015260186024820152775472616465206465616c206973206e6f742061637469766560401b6044820152606490fd5b9081602091031261173b5751801515810361173b5790565b6001600160a01b0391821681529116602082015260408101919091526080606082018190526132bd92910190612c09565b90565b9190820391821161220957565b60405190608082016001600160401b03811183821017611bcc5760405260006060838281528260208201528260408201520152565b1561330957565b60405162461bcd60e51b815260206004820152601f60248201527f5472616465206465616c20555344432061646472657373206e6f7420736574006044820152606490fd5b6001600160a01b03918216815291166020820152604081019190915260600190565b1561337757565b60405162461bcd60e51b81526020600482015260146024820152731554d110c81d1c985b9cd9995c8819985a5b195960621b6044820152606490fd5b9190820180921161220957565b8060001904821181151516612209570290565b6001600160a01b039091168152602081019190915260400190565b156133f557565b60405162461bcd60e51b815260206004820152602760248201527f496e73756666696369656e7420555344432062616c616e636520696e207472616044820152661919481919585b60ca1b6064820152608490fd5b6040519060a082016001600160401b03811183821017611bcc5760405260006080838281528260208201528260408201528260608201520152565b6040519061349282612a8a565b6060602083600081520152565b805460008255806134ae575050565b612e3391600052602060002090810190612dcd565b6134cf61016182612e8d565b6000526000805160206138e0833981519152602052604060002054801561350d576000805160206139e0833981519152602052604060002054101590565b50600090565b61351f61016182612e8d565b600052600080516020613900833981519152602052604060002054801561350d57600080516020613880833981519152602052604060002054101590565b60405190606082016001600160401b03811183821017611bcc5760405260006040838281528260208201520152565b3d156135b7573d9061359d82612ae3565b916135ab6040519384612ac0565b82523d6000602084013e565b606090565b9081602091031261173b57516001600160a01b038116810361173b5790565b60009160405160209184808085850163271a197f60e11b958682528860248201526024815261360981612aa5565b5190305afa61361661358c565b90806137f2575b6137bf575b5080916136d46136e98661369460226040519580518482019061364881878b0184612be6565b88019061366a848a612d4360f01b94858a82015203600281018c52018a612ac0565b61367f60405196879451928391860190612be6565b8201908c820152036002810184520182612ac0565b6040519283916136c28a840196639ead3d4760e01b88528c60248601526080604486015260a4850190612c09565b83810360231901606485015290612c09565b6001608483015203601f198101835282612ac0565b519082305af16136f761358c565b90806137b5575b61378e575b506001600160a01b03928484161561371d575b5050505090565b60009182916040519085820192835260248201526024815261373e81612aa5565b5190305afa61374b61358c565b9080613784575b61375d575b80613716565b8161376e92825183010191016135bc565b168061377c575b8080613757565b905038613775565b5080511515613752565b80519194506001600160a01b03916137ad9190810184019084016135bc565b169238613703565b50805115156136fe565b80516001600160a01b0392506137dc9190810186019086016135bc565b16806137e9578590613622565b94505050505090565b508051151561361d565b60009190829161384c604051809261382d602083019563319af33360e01b8752604060248501526064840190612c09565b6001600160a01b0391909116604483015203601f198101835282612ac0565b51906a636f6e736f6c652e6c6f675afa5056febd516eb36b5d4489adb2e717e7d0ce56c1b814eda85e78ad9d8f240b24dd8337bd516eb36b5d4489adb2e717e7d0ce56c1b814eda85e78ad9d8f240b24dd833ebd516eb36b5d4489adb2e717e7d0ce56c1b814eda85e78ad9d8f240b24dd833bbd516eb36b5d4489adb2e717e7d0ce56c1b814eda85e78ad9d8f240b24dd8340bd516eb36b5d4489adb2e717e7d0ce56c1b814eda85e78ad9d8f240b24dd833cbd516eb36b5d4489adb2e717e7d0ce56c1b814eda85e78ad9d8f240b24dd833fd870e4f0b23e1b6feaf7b25c39f808295f3c1bcd9e7208b3a2fc10b19db802e9bd516eb36b5d4489adb2e717e7d0ce56c1b814eda85e78ad9d8f240b24dd8336bd516eb36b5d4489adb2e717e7d0ce56c1b814eda85e78ad9d8f240b24dd8338bd516eb36b5d4489adb2e717e7d0ce56c1b814eda85e78ad9d8f240b24dd833dbd516eb36b5d4489adb2e717e7d0ce56c1b814eda85e78ad9d8f240b24dd8335bd516eb36b5d4489adb2e717e7d0ce56c1b814eda85e78ad9d8f240b24dd833abd516eb36b5d4489adb2e717e7d0ce56c1b814eda85e78ad9d8f240b24dd8339481f4c7283b81a95f22f60e167e146a8e25140deba7bc5c5816dfd5268a809cbc8fcad8db84d3cc18b4c41d551ea0ee66dd599cde068d998e57d5e09332c1320a2646970667358221220e1c1d342408ccf2232ece79e0ca96366bc0bebb18ec4c65b87f384e1434f02b164736f6c63430008100033",
  "libraries": {
    "AddressSet": "0x53BD8FBbceF4DA0CBf58a6C0f0f2a69B90ade658",
    "AttributeLib": "0x4311717618115bF98c8b6Fb1584986ef8854d661",
    "Base64": "0x3D3b170BaB5117c9c264BcE21557C9105A9DbCDb",
    "Bytes32Set": "0x5659a4609F86Bf68f84490Ff60317C9f289DbAB6",
    "CarbonCreditLib": "0x3e820f20A0638c9Fc703A58dF91E3217a713Bd7C",
    "DiamondFactoryLib": "0x04630F96879C650a1A866aFd8Fa33ef9A0AFd562",
    "DiamondLib": "0xbBEaf36519ad0314b48c2bC5FEAc0e3C90852471",
    "ERC721AEnumerationLib": "0x9D1908913362E0A4666e801b4e8816D93E895D20",
    "ERC721ALib": "0xBb272144eb7784429c1917C7fd8CFAbe16795e7B",
    "Identity": "0x91537c970B08efAB037FbC62aB124eE53558b32d",
    "IdentityFactory": "0x57e00AdC042243560E677413e8BA3fAAfC001875",
    "IdentitySystemStorage": "0x594925E46Ae407408f02EA0486858e1d9E72b391",
    "LibDiamond": "0x573CD8F769E707c61d0467f857518Dfe2C4C1758",
    "MerkleProver": "0x7C2D2b4EB370eD8Fd8349D9Db098Fc792B38a266",
    "MetadataLib": "0xD9CD006e443558277DE983B7BA4A41daFfD5237C",
    "MultiSaleLib": "0x051977FcDF9F8a6E5cAEb695bE88036edD99369c",
    "Strings": "0xCaf28cd397fc9ceF7D9FEd950e41ff675Da582d0",
    "StringsLib": "0x0e6837132cF362Ad22F2c0B762968491f43d8dC8",
    "SVGTemplatesLib": "0x1dC038686c74e6F22e174399fAc9069E3988b901",
    "UInt256Set": "0x6d2ea27213dF404c3bF876E27314321e7005c4D8",
    "VariablePriceLib": "0x991B5d0B7C09661ed70EbBe12a879540FfC77B21"
  },
  "devdoc": {
    "kind": "dev",
    "methods": {},
    "version": 1
  },
  "userdoc": {
    "kind": "user",
    "methods": {},
    "version": 1
  },
  "storageLayout": {
    "storage": [],
    "types": null
  }
}